{
  "contractName": "Lotery",
  "abi": [
    {
      "constant": true,
      "inputs": [],
      "name": "currentPeriod",
      "outputs": [
        {
          "name": "",
          "type": "uint256"
        }
      ],
      "payable": false,
      "stateMutability": "view",
      "type": "function"
    },
    {
      "constant": true,
      "inputs": [],
      "name": "ticketPrice",
      "outputs": [
        {
          "name": "",
          "type": "uint256"
        }
      ],
      "payable": false,
      "stateMutability": "view",
      "type": "function"
    },
    {
      "constant": true,
      "inputs": [],
      "name": "benefitPercents",
      "outputs": [
        {
          "name": "",
          "type": "uint256"
        }
      ],
      "payable": false,
      "stateMutability": "view",
      "type": "function"
    },
    {
      "constant": true,
      "inputs": [],
      "name": "benefitFunds",
      "outputs": [
        {
          "name": "",
          "type": "uint256"
        }
      ],
      "payable": false,
      "stateMutability": "view",
      "type": "function"
    },
    {
      "constant": true,
      "inputs": [],
      "name": "owner",
      "outputs": [
        {
          "name": "",
          "type": "address"
        }
      ],
      "payable": false,
      "stateMutability": "view",
      "type": "function"
    },
    {
      "constant": true,
      "inputs": [],
      "name": "maxTicketAmount",
      "outputs": [
        {
          "name": "",
          "type": "uint256"
        }
      ],
      "payable": false,
      "stateMutability": "view",
      "type": "function"
    },
    {
      "constant": true,
      "inputs": [
        {
          "name": "",
          "type": "uint256"
        },
        {
          "name": "",
          "type": "uint256"
        }
      ],
      "name": "tickets",
      "outputs": [
        {
          "name": "number",
          "type": "uint256"
        },
        {
          "name": "addr",
          "type": "address"
        },
        {
          "name": "hash",
          "type": "bytes32"
        }
      ],
      "payable": false,
      "stateMutability": "view",
      "type": "function"
    },
    {
      "constant": true,
      "inputs": [],
      "name": "maxPeriodDuration",
      "outputs": [
        {
          "name": "",
          "type": "uint256"
        }
      ],
      "payable": false,
      "stateMutability": "view",
      "type": "function"
    },
    {
      "constant": true,
      "inputs": [
        {
          "name": "",
          "type": "uint256"
        }
      ],
      "name": "periods",
      "outputs": [
        {
          "name": "number",
          "type": "uint256"
        },
        {
          "name": "startDate",
          "type": "uint256"
        },
        {
          "name": "winnerHash",
          "type": "bytes32"
        },
        {
          "name": "winnerAddress",
          "type": "address"
        },
        {
          "name": "raised",
          "type": "uint256"
        },
        {
          "name": "ticketAmount",
          "type": "uint256"
        },
        {
          "name": "finished",
          "type": "bool"
        },
        {
          "name": "reward",
          "type": "uint256"
        }
      ],
      "payable": false,
      "stateMutability": "view",
      "type": "function"
    },
    {
      "constant": false,
      "inputs": [
        {
          "name": "newOwner",
          "type": "address"
        }
      ],
      "name": "transferOwnership",
      "outputs": [],
      "payable": false,
      "stateMutability": "nonpayable",
      "type": "function"
    },
    {
      "inputs": [
        {
          "name": "_maxPeriodDuration",
          "type": "uint256"
        },
        {
          "name": "_ticketPrice",
          "type": "uint256"
        },
        {
          "name": "_benefitPercents",
          "type": "uint256"
        },
        {
          "name": "_maxTicketAmount",
          "type": "uint256"
        },
        {
          "name": "_hashAddr",
          "type": "address"
        }
      ],
      "payable": false,
      "stateMutability": "nonpayable",
      "type": "constructor"
    },
    {
      "payable": true,
      "stateMutability": "payable",
      "type": "fallback"
    },
    {
      "anonymous": false,
      "inputs": [
        {
          "indexed": false,
          "name": "periodNumber",
          "type": "uint256"
        },
        {
          "indexed": true,
          "name": "from",
          "type": "address"
        },
        {
          "indexed": false,
          "name": "hash",
          "type": "bytes32"
        },
        {
          "indexed": false,
          "name": "when",
          "type": "uint256"
        }
      ],
      "name": "TicketSelling",
      "type": "event"
    },
    {
      "anonymous": false,
      "inputs": [
        {
          "indexed": false,
          "name": "periodNumber",
          "type": "uint256"
        },
        {
          "indexed": true,
          "name": "winnerAddr",
          "type": "address"
        },
        {
          "indexed": false,
          "name": "reward",
          "type": "uint256"
        },
        {
          "indexed": false,
          "name": "winnerHash",
          "type": "bytes32"
        },
        {
          "indexed": false,
          "name": "when",
          "type": "uint256"
        }
      ],
      "name": "PeriodFinished",
      "type": "event"
    },
    {
      "anonymous": false,
      "inputs": [
        {
          "indexed": true,
          "name": "to",
          "type": "address"
        },
        {
          "indexed": false,
          "name": "value",
          "type": "uint256"
        }
      ],
      "name": "TransferBenefit",
      "type": "event"
    },
    {
      "anonymous": false,
      "inputs": [
        {
          "indexed": true,
          "name": "previousOwner",
          "type": "address"
        },
        {
          "indexed": true,
          "name": "newOwner",
          "type": "address"
        }
      ],
      "name": "OwnershipTransferred",
      "type": "event"
    },
    {
      "constant": false,
      "inputs": [
        {
          "name": "periodNumber",
          "type": "uint256"
        },
        {
          "name": "data",
          "type": "string"
        }
      ],
      "name": "buyTicket",
      "outputs": [],
      "payable": true,
      "stateMutability": "payable",
      "type": "function"
    },
    {
      "constant": false,
      "inputs": [],
      "name": "benefit",
      "outputs": [],
      "payable": false,
      "stateMutability": "nonpayable",
      "type": "function"
    },
    {
      "constant": false,
      "inputs": [],
      "name": "finishRoundAndStartNew",
      "outputs": [],
      "payable": false,
      "stateMutability": "nonpayable",
      "type": "function"
    }
  ],
  "bytecode": "0x6060604052341561000f57600080fd5b60405160a08061122183398101604052808051906020019091908051906020019091908051906020019091908051906020019091908051906020019091905050336000806101000a81548173ffffffffffffffffffffffffffffffffffffffff021916908373ffffffffffffffffffffffffffffffffffffffff1602179055508460028190555083600481905550826005819055508160038190555080600860006101000a81548173ffffffffffffffffffffffffffffffffffffffff021916908373ffffffffffffffffffffffffffffffffffffffff160217905550600860009054906101000a900473ffffffffffffffffffffffffffffffffffffffff1673ffffffffffffffffffffffffffffffffffffffff16636d4ce63c6000604051602001526040518163ffffffff167c0100000000000000000000000000000000000000000000000000000000028152600401602060405180830381600087803b151561017a57600080fd5b6102c65a03f1151561018b57600080fd5b5050506040518051905060078160001916905550600154600a600060015481526020019081526020016000206000018190555042600a60006001548152602001908152602001600020600101819055505050505050611032806101ef6000396000f3006060604052600436106100c5576000357c0100000000000000000000000000000000000000000000000000000000900463ffffffff168063060406181461013d5780631209b1f61461016657806325bdb73d1461018f5780632e5113b7146101b85780634568fb50146101cd5780636f53da8f146101e25780638da5cb5b1461020b5780639afb93cb14610260578063a284b6d3146102bb578063a374e43f146102e4578063d917899314610366578063ea4a11041461038f578063f2fde38b1461042f575b600454341415156100d557600080fd5b600354600a60006001548152602001908152602001600020600501541015156100fd57600080fd5b61013b6000368080601f0160208091040260200160405190810160405280939291908181526020018383808284378201915050505050503433610468565b005b341561014857600080fd5b610150610841565b6040518082815260200191505060405180910390f35b341561017157600080fd5b610179610847565b6040518082815260200191505060405180910390f35b341561019a57600080fd5b6101a261084d565b6040518082815260200191505060405180910390f35b34156101c357600080fd5b6101cb610853565b005b34156101d857600080fd5b6101e06109e0565b005b34156101ed57600080fd5b6101f5610a3b565b6040518082815260200191505060405180910390f35b341561021657600080fd5b61021e610a41565b604051808273ffffffffffffffffffffffffffffffffffffffff1673ffffffffffffffffffffffffffffffffffffffff16815260200191505060405180910390f35b6102b9600480803590602001909190803590602001908201803590602001908080601f01602080910402602001604051908101604052809392919081815260200183838082843782019150505050505091905050610a66565b005b34156102c657600080fd5b6102ce610abb565b6040518082815260200191505060405180910390f35b34156102ef57600080fd5b61030e6004808035906020019091908035906020019091905050610ac1565b604051808481526020018373ffffffffffffffffffffffffffffffffffffffff1673ffffffffffffffffffffffffffffffffffffffff1681526020018260001916600019168152602001935050505060405180910390f35b341561037157600080fd5b610379610b18565b6040518082815260200191505060405180910390f35b341561039a57600080fd5b6103b06004808035906020019091905050610b1e565b6040518089815260200188815260200187600019166000191681526020018673ffffffffffffffffffffffffffffffffffffffff1673ffffffffffffffffffffffffffffffffffffffff168152602001858152602001848152602001831515151581526020018281526020019850505050505050505060405180910390f35b341561043a57600080fd5b610466600480803573ffffffffffffffffffffffffffffffffffffffff16906020019091905050610b93565b005b60006002846007546000604051602001526040518083805190602001908083835b6020831015156104ae5780518252602082019150602081019050602083039250610489565b6001836020036101000a03801982511681845116808217855250505050505090500182600019166000191681526020019250505060206040518083038160008661646e5a03f115156104ff57600080fd5b505060405180519050905060028160075460006040516020015260405180836000191660001916815260200182600019166000191681526020019250505060206040518083038160008661646e5a03f1151561055a57600080fd5b505060405180519050600781600019169055506000600a600060015481526020019081526020016000206005015414806105b35750600a6000600154815260200190815260200160002060020154600019168160001916105b156106315780600a60006001548152602001908152602001600020600201816000191690555081600a6000600154815260200190815260200160002060030160006101000a81548173ffffffffffffffffffffffffffffffffffffffff021916908373ffffffffffffffffffffffffffffffffffffffff1602179055505b600a60006001548152602001908152602001600020600501546009600060015481526020019081526020016000206000600a6000600154815260200190815260200160002060050154815260200190815260200160002060000181905550816009600060015481526020019081526020016000206000600a6000600154815260200190815260200160002060050154815260200190815260200160002060010160006101000a81548173ffffffffffffffffffffffffffffffffffffffff021916908373ffffffffffffffffffffffffffffffffffffffff160217905550806009600060015481526020019081526020016000206000600a600060015481526020019081526020016000206005015481526020019081526020016000206002018160001916905550600a600060015481526020019081526020016000206005016000815480929190600101919050555082600a60006001548152602001908152602001600020600401600082825401925050819055508173ffffffffffffffffffffffffffffffffffffffff167fb2b59d7d1401b42dd7c160990126a02b0ab0a1116fb1736bcd0be80d14a12e596001548342604051808481526020018360001916600019168152602001828152602001935050505060405180910390a2600354600a600060015481526020019081526020016000206005015410151561083b5761083a610ce8565b5b50505050565b60015481565b60045481565b60055481565b60008060009054906101000a900473ffffffffffffffffffffffffffffffffffffffff1673ffffffffffffffffffffffffffffffffffffffff163373ffffffffffffffffffffffffffffffffffffffff161415156108b057600080fd5b60006006541115156108c157600080fd5b6006543073ffffffffffffffffffffffffffffffffffffffff16310390506000809054906101000a900473ffffffffffffffffffffffffffffffffffffffff1673ffffffffffffffffffffffffffffffffffffffff166108fc6006549081150290604051600060405180830381858888f19350505050151561094257600080fd5b60006006819055506000809054906101000a900473ffffffffffffffffffffffffffffffffffffffff1673ffffffffffffffffffffffffffffffffffffffff167f7743d65d39fe9c834651717b072dd9b69f9c4b2a21b09c2a4c306fc54a3f4e8f6006546040518082815260200191505060405180910390a2803073ffffffffffffffffffffffffffffffffffffffff16311415156109dd57fe5b50565b6000600a6000600154815260200190815260200160002060050154111515610a0757600080fd5b42600254600a600060015481526020019081526020016000206001015401101515610a3157600080fd5b610a39610ce8565b565b60065481565b6000809054906101000a900473ffffffffffffffffffffffffffffffffffffffff1681565b60045434141515610a7657600080fd5b600354600a600084815260200190815260200160002060050154101515610a9c57600080fd5b60015482141515610aac57600080fd5b610ab7813433610468565b5050565b60035481565b6009602052816000526040600020602052806000526040600020600091509150508060000154908060010160009054906101000a900473ffffffffffffffffffffffffffffffffffffffff16908060020154905083565b60025481565b600a6020528060005260406000206000915090508060000154908060010154908060020154908060030160009054906101000a900473ffffffffffffffffffffffffffffffffffffffff16908060040154908060050154908060060160009054906101000a900460ff16908060070154905088565b6000809054906101000a900473ffffffffffffffffffffffffffffffffffffffff1673ffffffffffffffffffffffffffffffffffffffff163373ffffffffffffffffffffffffffffffffffffffff16141515610bee57600080fd5b600073ffffffffffffffffffffffffffffffffffffffff168173ffffffffffffffffffffffffffffffffffffffff1614151515610c2a57600080fd5b8073ffffffffffffffffffffffffffffffffffffffff166000809054906101000a900473ffffffffffffffffffffffffffffffffffffffff1673ffffffffffffffffffffffffffffffffffffffff167f8be0079c531659141344cd1fd0a4f28419497f9722a3daafe3b4186f6b6457e060405160405180910390a3806000806101000a81548173ffffffffffffffffffffffffffffffffffffffff021916908373ffffffffffffffffffffffffffffffffffffffff16021790555050565b600080600a6000600154815260200190815260200160002060060160009054906101000a900460ff16151515610d1d57600080fd5b600354600a600060015481526020019081526020016000206005015410151515610d4657600080fd5b6064600554600a600060015481526020019081526020016000206004015402811515610d6e57fe5b04600a600060015481526020019081526020016000206004015403915081600a600060015481526020019081526020016000206004015403600660008282540192505081905550813073ffffffffffffffffffffffffffffffffffffffff1631039050600a6000600154815260200190815260200160002060030160009054906101000a900473ffffffffffffffffffffffffffffffffffffffff1673ffffffffffffffffffffffffffffffffffffffff166108fc839081150290604051600060405180830381858888f193505050501515610e4957600080fd5b81600a60006001548152602001908152602001600020600701819055506001600a6000600154815260200190815260200160002060060160006101000a81548160ff021916908315150217905550600a6000600154815260200190815260200160002060030160009054906101000a900473ffffffffffffffffffffffffffffffffffffffff1673ffffffffffffffffffffffffffffffffffffffff167f420a4e3c37885b1b5f18863c79d94bc5850f9cb4bbe435078ceed3b4d2a890d260015484600a60006001548152602001908152602001600020600201544260405180858152602001848152602001836000191660001916815260200182815260200194505050505060405180910390a2610f5f610f85565b803073ffffffffffffffffffffffffffffffffffffffff1631141515610f8157fe5b5050565b600a6000600154815260200190815260200160002060060160009054906101000a900460ff161515610fb657600080fd5b600160008154809291906001019190505550600154600a600060015481526020019081526020016000206000018190555042600a60006001548152602001908152602001600020600101819055505600a165627a7a723058202ed206db2b0497eca44ba987a10eb824ccb1b49d5d06b6dfb9bf007a024b1ff40029",
  "source": "pragma solidity ^0.4.0;\n\n\n\n\nimport './Lib.sol';\nimport './Hash.sol';\n\n\n\ncontract Lotery is Ownable {\n\n    //event when gamer is buying a new ticket\n    event TicketSelling(uint periodNumber, address indexed from, bytes32 hash, uint when);\n\n    //event when period finished\n    event PeriodFinished(uint periodNumber, address indexed winnerAddr, uint reward, bytes32 winnerHash, uint when);\n\n    //event when any funds transferred\n    event TransferBenefit(address indexed to, uint value);\n\n    //current period of the game\n    uint public currentPeriod;\n\n    //if maxTicketAmount is not rised and maxPeriodDuration from period start is gone everyone can finish current round\n    uint public maxPeriodDuration;\n\n    uint public maxTicketAmount;\n\n    //ticket price in this contract\n    uint public ticketPrice;\n\n    //part for owner\n    uint public benefitPercents;\n\n    //funds for owner\n    uint public benefitFunds;\n\n    //base game hash from other contract Hash\n    bytes32 private baseHash;\n\n    Hash private hashGenerator;\n\n    //period struct\n    struct period {\n    uint number;\n    uint startDate;\n    bytes32 winnerHash;\n    address winnerAddress;\n    uint raised;\n    uint ticketAmount;\n    bool finished;\n    uint reward;\n    }\n\n    //ticket struct\n    struct ticket {\n    uint number;\n    address addr;\n    bytes32 hash;\n    }\n\n\n    //ticket store\n    mapping (uint => mapping (uint => ticket)) public tickets;\n\n    //periods store\n    mapping (uint => period) public periods;\n\n\n    function Lotery(uint _maxPeriodDuration, uint _ticketPrice, uint _benefitPercents, uint _maxTicketAmount, address _hashAddr) public {\n\n        //set data in constructor\n        maxPeriodDuration = _maxPeriodDuration;\n        ticketPrice = _ticketPrice;\n        benefitPercents = _benefitPercents;\n        maxTicketAmount = _maxTicketAmount;\n\n        //get initial hash\n        hashGenerator = Hash(_hashAddr);\n        baseHash = hashGenerator.get();\n\n        //start initial period\n        periods[currentPeriod].number = currentPeriod;\n        periods[currentPeriod].startDate = now;\n\n    }\n\n\n\n    //start new period\n    function startNewPeriod() private {\n        //if prev period finished\n        require(periods[currentPeriod].finished);\n        //init new period\n        currentPeriod++;\n        periods[currentPeriod].number = currentPeriod;\n        periods[currentPeriod].startDate = now;\n\n    }\n\n\n\n\n\n    //buy ticket with specified round and passing string data\n    function buyTicket(uint periodNumber, string data) payable public {\n\n        //only with ticket price!\n        require(msg.value == ticketPrice);\n        //only if current ticketAmount < maxTicketAmount\n        require(periods[periodNumber].ticketAmount < maxTicketAmount);\n        //roundNumber is currentRound\n        require(periodNumber == currentPeriod);\n\n        processTicketBuying(data, msg.value, msg.sender);\n\n    }\n\n\n    //buy ticket with msg.data and currentRound when transaction happened\n    function() payable public {\n\n        //only with ticket price!\n        require(msg.value == ticketPrice);\n        //only if current ticketAmount < maxTicketAmount\n        require(periods[currentPeriod].ticketAmount < maxTicketAmount);\n\n\n\n\n        processTicketBuying(string(msg.data), msg.value, msg.sender);\n\n\n    }\n\n    function processTicketBuying(string data, uint value, address sender) private {\n\n\n        //MAIN SECRET!\n        //calc ticket hash from baseHash and user data\n        //nobody knows baseHash\n        bytes32 hash = sha256(data, baseHash);\n\n        //update base hash for next tickets\n        baseHash = sha256(hash, baseHash);\n\n        //set winner if this is a best hash in round\n        if (periods[currentPeriod].ticketAmount == 0 || (hash < periods[currentPeriod].winnerHash)) {\n            periods[currentPeriod].winnerHash = hash;\n            periods[currentPeriod].winnerAddress = sender;\n        }\n\n        //update tickets store\n        tickets[currentPeriod][periods[currentPeriod].ticketAmount].number = periods[currentPeriod].ticketAmount;\n        tickets[currentPeriod][periods[currentPeriod].ticketAmount].addr = sender;\n        tickets[currentPeriod][periods[currentPeriod].ticketAmount].hash = hash;\n\n\n        //update periods store\n        periods[currentPeriod].ticketAmount++;\n        periods[currentPeriod].raised += value;\n\n        //call events\n        TicketSelling(currentPeriod, sender, hash, now);\n\n        //automatically finish and start new round if max ticket amount is raised\n        if (periods[currentPeriod].ticketAmount >= maxTicketAmount) {\n            finishRound();\n        }\n\n    }\n\n\n    //finish round\n    function finishRound() private {\n\n        //only if not finished yet\n        require(!periods[currentPeriod].finished);\n        //only if ticketAmount >= maxTicketAmount\n        require(periods[currentPeriod].ticketAmount >= maxTicketAmount);\n\n\n        //calc reward for current winner with minus %\n        uint winnerReward = periods[currentPeriod].raised - ((periods[currentPeriod].raised * benefitPercents) / 100);\n\n        //calc owner benefit\n        benefitFunds += periods[currentPeriod].raised - winnerReward;\n\n        //calc expected balance\n        uint plannedBalance = this.balance - winnerReward;\n\n        //send ether to winner\n        periods[currentPeriod].winnerAddress.transfer(winnerReward);\n\n\n        //update period data\n        periods[currentPeriod].reward = winnerReward;\n        periods[currentPeriod].finished = true;\n\n\n        //call events\n        PeriodFinished(currentPeriod, periods[currentPeriod].winnerAddress, winnerReward, periods[currentPeriod].winnerHash, now);\n\n        //automatically start new period\n        startNewPeriod();\n\n        //check balance\n        assert(this.balance == plannedBalance);\n    }\n\n    //benefit for owner\n    function benefit() public onlyOwner {\n        require(benefitFunds > 0);\n\n        uint plannedBalance = this.balance - benefitFunds;\n        owner.transfer(benefitFunds);\n        benefitFunds = 0;\n\n        TransferBenefit(owner, benefitFunds);\n        assert(this.balance == plannedBalance);\n    }\n\n    //manually finish and restart round\n    function finishRoundAndStartNew() public {\n        //only if round has tickets\n        require(periods[currentPeriod].ticketAmount > 0);\n        //only if date is expired\n        require(periods[currentPeriod].startDate + maxPeriodDuration < now);\n        //restart round\n        finishRound();\n    }\n\n\n}",
  "sourcePath": "/Users/pandanax/dev/cryptogames/solidity/contracts/Lotery.sol",
  "compiler": {
    "name": "solc",
    "version": "0.4.19+commit.c4cbbb05.Emscripten.clang"
  },
  "schemaVersion": "1.0.1",
  "updatedAt": "2018-02-09T09:56:55.681Z"
}